:020000040000FA
:040000000DEF00F010
:020004000000FA
:0800080004EF00F00806FEE120
:100010000706FCE10606FAE11200926A0F0EC16EB5
:10002000806A946A826A956A836A0F0E936E8198D9
:10003000819A819C819E08680768320E066E006A6C
:10004000026A036A046A056A096A0A6A0B6A0C6A28
:100050000D6A0E6A0F6A106A2EEF00F030EF00F0A2
:1000600089688B688C6806EC00F0896A8B6A8C6AF8
:10007000B60E076EB60E086E090E116E090E126EE0
:10008000090E136E090E146E090E156E090E166E0A
:10009000090E176E090E186E010E016E50EF00F07A
:1000A00028EF04F0000E0062F5EF01F0CFEF00F052
:1000B000000E006241EF02F012EF01F0000E00624C
:1000C0001AEF03F05BEF01F0000E0062EAEF03F0BD
:1000D000A5EF01F0010E016205D009C080FF0D50AF
:1000E00080121200020E016205D00AC082FF0D507C
:1000F000821212000BC083FF0D5083121200010EFA
:10010000016207D0000E0C6202D0806A1200806883
:100110001200020E016207D0000E0C6202D0826A49
:10012000120082681200000E0C6202D0836A120074
:1001300083681200000E00621AD1000E026205D020
:1001400081B03ED0010E026E3BD0010E026210D093
:10015000110636E1120634E1090E116E090E126E17
:1001600081B003D0020E026E2BD0000E026E28D09A
:10017000020E026205D081A023D0030E026E20D0B1
:1001800011061EE112061CE1090E116E090E126E17
:1001900081B003D0020E026E13D052EF00F0000EB9
:1001A000026E010E016203D0FF0E091A1200020E48
:1001B000016203D0FF0E0A1A1200FF0E0B1A120082
:1001C000000E036205D081B244D0010E036E41D00F
:1001D000010E036210D013063CE114063AE1090E49
:1001E000136E090E146E81B203D0020E036E31D06D
:1001F000000E036E2ED0020E036205D081A229D01C
:10020000030E036E26D0130624E1140622E1090E24
:10021000136E090E146E81B203D0020E036E19D054
:1002200058EF00F0000E036E010E016207D0020EBF
:10023000016E09C080FF7FEC00F01200020E016227
:1002400007D0030E016E0AC082FF7FEC00F012009F
:100250001200000E046205D081B445D0010E046E78
:1002600042D0010E046210D015063DE116063BE1B6
:10027000090E156E090E166E81B403D0020E046EBF
:1002800032D0000E046E2FD0020E046205D081A47D
:100290002AD0030E046E27D0150625E1160623E1A9
:1002A000090E156E090E166E81B403D0020E046E8F
:1002B0001AD05EEF00F0000E046E010E016201D054
:1002C0001200020E016207D0010E016E0AC082FF09
:1002D0007FEC00F01200020E016E0BC083FF7FEC7A
:1002E00000F012001200000E056205D081B6120067
:1002F000010E056E1200010E056210D01706F2E124
:100300001806F0E1090E176E090E186E81B603D0BB
:10031000020E056E1200000E056E1200020E05623E
:1003200005D081A61200030E056E12001706DAE151
:100330001806D8E1090E176E090E186E81B603D0A3
:10034000020E056E120064EF00F0000E056E010E45
:10035000006E09C080FF0AC082FF0BC083FF0D6AD8
:100360000E6A0F6A106A0D806AEC00F01200000E2F
:100370000262C2EF01F081B003EF02F0010E026EE3
:1003800003EF02F0010E0262D9EF01F011063BE12A
:10039000120639E1090E116E090E126E81B0D5EF09
:1003A00001F0020E026E03EF02F0000E026E03EF88
:1003B00002F0020E0262E4EF01F081A003EF02F00E
:1003C000030E026E03EF02F011061DE112061BE19F
:1003D000090E116E090E126E81B0F3EF01F0020EDC
:1003E000026E03EF02F052EF00F0000E026E000EFC
:1003F0001062FEEF01F0010E106E1200000E106E82
:100400001200DCEF02F0000E03620EEF02F081B288
:10041000DCEF02F0010E036EDCEF02F0010E03626E
:1004200025EF02F01306EDE11406EBE1090E136E61
:10043000090E146E81B221EF02F0020E036EDCEFA2
:1004400002F0000E036EDCEF02F0020E036230EFEA
:1004500002F081A2DCEF02F0030E036EDCEF02F08B
:100460001306CFE11406CDE1090E136E090E146ECA
:1004700081B23FEF02F0020E036EDCEF02F058EFA4
:1004800000F0000E036E000E106293EF02F00E50AB
:100490000F624CEF02F01200000E0E6251EF02F0FC
:1004A0001200010E0E625BEF02F0000E0E6E0D9256
:1004B0006AEC00F01200020E0E6265EF02F0010E0F
:1004C0000E6E0D946AEC00F01200030E0E626FEFD8
:1004D00002F0020E0E6E0D966AEC00F01200040E91
:1004E0000E6279EF02F0030E0E6E0D986AEC00F0CA
:1004F0001200050E0E6283EF02F0040E0E6E0D9ACE
:100500006AEC00F01200060E0E628DEF02F0050E8E
:100510000E6E0D9C6AEC00F01200060E0E6E0D9E23
:100520006AEC00F01200000E0F6298EF02F0120069
:10053000010E0F62A2EF02F0000E0F6E0D806AEC4A
:1005400000F01200020E0F62ACEF02F0010E0F6E0F
:100550000D826AEC00F01200030E0F62B6EF02F09B
:10056000020E0F6E0D846AEC00F01200040E0F6292
:10057000C0EF02F0030E0F6E0D866AEC00F0120061
:10058000050E0F62CAEF02F0040E0F6E0D886AECC2
:1005900000F01200060E0F62D4EF02F0050E0F6E8F
:1005A0000D8A6AEC00F01200060E0F6E0D8C6AECDC
:1005B00000F01200B3EF03F0000E0462E7EF02F068
:1005C00081B4B3EF03F0010E046EB3EF03F0010E3C
:1005D0000462FEEF02F01506EDE11606EBE1090EEE
:1005E000156E090E166E81B4FAEF02F0020E046E5B
:1005F000B3EF03F0000E046EB3EF03F0020E0462DB
:1006000009EF03F081A4B3EF03F0030E046EB3EF20
:1006100003F01506CFE11606CDE1090E156E090EA1
:10062000166E81B418EF03F0020E046EB3EF03F000
:100630005EEF00F0000E046E000E106267EF03F034
:10064000000E0E622AEF03F0010E0E6E0D826AECB0
:1006500000F01200010E0E6234EF03F0020E0E6E77
:100660000D846AEC00F01200020E0E623EEF03F001
:10067000030E0E6E0D866AEC00F01200030E0E6281
:1006800048EF03F0040E0E6E0D886AEC00F01200C5
:10069000040E0E6252EF03F0050E0E6E0D8A6AEC28
:1006A00000F01200050E0E625CEF03F0060E0E6EF7
:1006B0000D8C6AEC00F01200060E0E6266EF03F07D
:1006C000070E0E6E0D8E6AEC00F0120012000F5035
:1006D0000E626CEF03F01200000E0F6276EF03F073
:1006E000010E0F6E0D906AEC00F01200010E0F6209
:1006F00080EF03F0020E0F6E0D926AEC00F0120014
:10070000020E0F628AEF03F0030E0F6E0D946AEC77
:1007100000F01200030E0F6294EF03F0040E0F6E50
:100720000D966AEC00F01200040E0F629EEF03F0CB
:10073000050E0F6E0D986AEC00F01200050E0F62A8
:10074000A8EF03F0060E0F6E0D9A6AEC00F012008F
:10075000060E0F62B2EF03F0070E0F6E0D9C6AECEF
:1007600000F012001200000E0562BCEF03F081B62B
:100770001200010E056E1200010E0562D1EF03F0AA
:10078000170635E1180633E1090E176E090E186ECB
:1007900081B6CEEF03F0020E056E1200000E056E5C
:1007A0001200020E0562DAEF03F081A61200030EBA
:1007B000056E120017061BE1180619E1090E176EE7
:1007C000090E186E81B6E8EF03F0020E056E1200F6
:1007D00064EF00F0000E056E000E006E80CF09F091
:1007E00082CF0AF083CF0BF07FEC00F012001200F2
:1007F000B60E076EB60E086E000E00621FD0000E19
:100800000C620ED0010E0C6E010E016202D08068E7
:100810001ED0020E016202D0826819D0836817D000
:10082000000E0C6E010E016202D0806A10D0020E22
:10083000016202D0826A0BD0836A09D0000E0C627A
:1008400003D0010E0C6E03D0000E0C6E00D012000F
:10085000080604E1070602E1F8EC03F09AEC00F068
:0408600028EF04F089
:020000040030CA
:0100010006F8
:0100020018E5
:010003001EDE
:010005008179
:010006008079
:010008000FE8
:01000900C036
:01000A000FE6
:01000B00E014
:01000C000FE4
:01000D0040B2
:00000001FF
